:060000000A128A11122809
:10000800FE00030EF1000408F2000A08F300831250
:1000180003137F08F4000A128A1140280A128A1171
:10002800152883010A128A111928831603138113CC
:10003800FF30860088018312031388018B170B1782
:100048008C11831603138C1507309F008516F50154
:10005800F601F70124300A128A115E200A128A1169
:100068000D3083120313A100FB30A000A00B3A2827
:10007800A10B3A283F2834288C1D53280A128A11CC
:1000880072200A128A1183120313880006080A12C2
:100098008A1179200A128A11831203138C117408A9
:1000A800FF0073088A0072088400710E8300FE0E38
:1000B8007E0E0900F800831603138712781D68283E
:1000C8007708940087156C287508770494008711C1
:1000D8007808760483120313940008000A128A1120
:1000E8007F208312031313080800F000700883129E
:1000F80003139300080083160313141808007F28BD
:02400E0039FF78
:00000001FF
