:020000040000FA
:0400000007EF00F016
:100008000682B3ED00F094EF00F09CEC00F0C3EC36
:1000180000F08AEC00F0C0EC00F0C6EC00F003A29F
:1000280018EF00F01AEF00F01EEF00F003920F0E29
:10003800B8EC00F003A423EF00F025EF00F027EF61
:1000480000F0ACEC00F003A82CEF00F02EEF00F06D
:1000580013EF00F003B833EF00F036EF00F0010EB5
:1000680037EF00F0000E056E03B63DEF00F040EFED
:1000780000F0010E41EF00F0000E051AD8B447EF6A
:1000880000F049EF00F050EF00F003A802D003861B
:1000980001D00396C9EC00F0039813EF00F007EFC6
:1000A80000F09DA65AEF00F05CEF00F067EF00F05B
:1000B8009EA661EF00F063EF00F067EF00F09E96F8
:1000C800BCEC00F0026E9DAA6CEF00F06EEF00F041
:1000D80079EF00F09EAA73EF00F075EF00F079EF6A
:1000E80000F09E9A0384AECF01F0F1AC7EEF00F0F1
:1000F80080EF00F089EF00F0F2A285EF00F087EFC3
:1001080000F089EF00F0F29203881200AC8AAC94F8
:10011800AB8EAB887E92400EAF6E9E9A9D8A12007F
:10012800036A026A016A06900692000109EF00F06C
:10013800000E956E000E836E948E949C9380120030
:10014800C7A0A9EF00F0ABEF00F0A4EF00F0120099
:10015800AECF01F001C083FF01C0ADFF1200060061
:10016800CCEC00F006921100046E04C0C9FF120026
:10017800A4EC00F0C9501200F18CF28812009E968F
:100188009D861200F28EF28C1200CC0EAD6E12001B
:0601980055EC00F012001E
:020000040020DA
:08000000FFFFFFFFFFFFFFFF00
:020000040030CA
:0E000000FF01191EF38381FFFFC0FFE0FF40E8
:00000001FF
