:020000040000FA
:0400000007EF00F016
:10000800078264ED00F053EF00F05AEC00F05FEC6B
:1000180000F0000E016E000E026E000E036E240E3C
:1000280027EC00F006A21BEF00F01DEF00F016EF22
:1000380000F0000E836E06920F0E69EC00F016EFCA
:1000480000F007EF00F0046E949A04A42EEF00F07D
:1000580030EF00F037EF00F003C0C7FF94869490AC
:1000680082803CEF00F001500310C76E9496948094
:10007800250EC66E12009EA644EF00F046EF00F073
:100088004AEF00F09E966DEC00F0836E1200C7A058
:1000980050EF00F052EF00F04BEF00F01200066A4C
:1000A800056A07900792000109EF00F0000E956EAF
:1000B800000E836E1200F28EF28C9E969D861200C0
:1000C800060071EC00F007921100016E01C0C9FF33
:1000D80012004BEC00F0C95012003FEC00F0120087
:020000040020DA
:08000000FFFFFFFFFFFFFFFF00
:020000040030CA
:0E000000FF01191EF38381FFFFC0FFE0FF40E8
:00000001FF
