:020000040000FA
:0400000007EF00F016
:0A0008005B8251ED09F0BEEF08F035
:1010000000737373646464640000000000000000F7
:1010100000000000000000000000000000000000D0
:1010200000000000000000000000000000000000C0
:1010300000000000000000000000000000000000B0
:1010400000000000000000000000000000000000A0
:10105000000086EC09F06AEC09F067EC09F028EC76
:1010600009F042EC09F076EC09F070EC09F07FEC45
:1010700009F06DEC09F0000E016E000E026E000E1C
:10108000036E240ED7EC08F0010EF66E20EE05F08C
:101090004F0E0900F5CFDEFFE806FBE257A253EF43
:1010A00008F055EF08F058EF08F05BEC09F05792A4
:1010B00057AA5DEF08F05FEF08F062EF08F0F0EC80
:1010C00008F0579A57A467EF08F069EF08F06CEF43
:1010D00008F073EC09F0579457A871EF08F073EF1C
:1010E00008F076EF08F0579681EC09F057B67BEFE1
:1010F00008F07DEF08F04EEF08F007EC09F04EEF36
:1011000008F007EF00F09DA688EF08F08AEF08F0DE
:1011100094EF08F09EA68FEF08F091EF08F094EF9F
:1011200008F03CEC09F09E969DAA99EF08F09BEF21
:1011300008F0ACEF08F09EAAA0EF08F0A2EF08F0CC
:10114000ACEF08F057B4A7EF08F0A9EF08F0ACEF48
:1011500008F056EC09F09E9AF1ACB1EF08F0B3EF4D
:1011600008F0BDEF08F0F2A2B8EF08F0BAEF08F00F
:10117000BDEF08F018EC09F0F29212000A0EF66EBC
:10118000130EF76E000EF86E0900F5CF59F0090046
:10119000F5CF5AF0586A576A566A556A5B905B9267
:1011A000000EF86E100EF76E000129EF08F0046EC5
:1011B000949A948804A4DFEF08F0E1EF08F0E8EFD8
:1011C00008F003C0C7FF948694848B80EDEF08F08D
:1011D00001500310C76E94969494250EC66E1200AB
:1011E00057AEF5EF08F0F7EF08F0FCEF08F047EC2A
:1011F00009F0579E06EF09F057AC01EF09F003EF35
:1012000009F006EF09F04CEC09F0579C1200590662
:10121000D8A05A0659505A10D8A411EF09F013EF6C
:1012200009F017EF09F05786000E5A6E5968120040
:1012300057A61DEF09F01FEF09F027EF09F057B887
:1012400024EF09F026EF09F027EF09F05788120084
:10125000AC940F0EAF6EAC98AB8E9D8AAB889E9A05
:10126000AC8A000EAE6E1200C7A039EF09F03BEF5A
:1012700009F034EF09F0120063EC09F0586E578260
:10128000578C1200000E956E000E836E120056C031
:1012900055F079EC09F0120058C055F079EC09F0DE
:1012A000120006007CEC09F05B921100578483EC7D
:1012B00009F0566E120058505FEC09F01200016EF2
:1012C00001C0C9FF120034EC09F0C9501200948E1D
:1012D000949C12009E969D861200F28EF28C120053
:1012E000F18CF2881200578A578E12005798578651
:1012F000120055C083FF120083EC08F012009380A7
:0E130000120057981200AE501200FF001200AB
:020000040020DA
:08000000FFFFFFFFFFFFFFFF00
:020000040030CA
:0E000000FF01191EF38381FFFFC0FFE0FF40E8
:00000001FF
