:020000040000FA
:0400000007EF00F016
:0A0008005B826AED09F0D9EF08F001
:1010000000737373646464640000000000000000F7
:1010100000000000000000000000000000000000D0
:1010200000000000000000000000000000000000C0
:1010300000000000000000000000000000000000B0
:1010400000000000000000000000000000000000A0
:1010500000009DEC09F083EC09F080EC09F03CEC19
:1010600009F056EC09F08FEC09F089EC09F098ECE6
:1010700009F086EC09F0000E016E000E026E000E03
:10108000036E250EBEEC08F0010EF66E20EE05F0A4
:101090004F0E0900F5CFDEFFE806FBE257A253EF43
:1010A00008F055EF08F058EF08F065EC09F057929A
:1010B00057AA5DEF08F05FEF08F062EF08F0F2EC7E
:1010C00008F0579A57A467EF08F069EF08F06CEF43
:1010D00008F08CEC09F0579457A871EF08F073EF03
:1010E00008F076EF08F0579609EC09F057B67BEF59
:1010F00008F07DEF08F04EEF08F01BEC09F04EEF22
:1011000008F007EF00F09DA688EF08F08AEF08F0DE
:1011100094EF08F09EA68FEF08F091EF08F094EF9F
:1011200008F050EC09F09E969DAA99EF08F09BEF0D
:1011300008F0ACEF08F09EAAA0EF08F0A2EF08F0CC
:10114000ACEF08F057B4A7EF08F0A9EF08F0ACEF48
:1011500008F06FEC09F09E9AF1ACB1EF08F0B3EF34
:1011600008F0BDEF08F0F2A2B8EF08F0BAEF08F00F
:10117000BDEF08F02CEC09F0F2921200046E949A84
:10118000948804A4C6EF08F0C8EF08F0CEEF08F08A
:1011900003C0C7FF94868B80D3EF08F00150031083
:1011A000C76E9496949404500210C66EC79CC6985D
:1011B0001200380EF66E130EF76E000EF86E090070
:1011C000F5CF59F00900F5CF5AF0586A576A566AB8
:1011D000556A5B905B92000EF86E100EF76E000180
:1011E00029EF08F057AEF7EF08F0F9EF08F0FEEF3F
:1011F00008F05BEC09F0579E08EF09F057AC03EFDD
:1012000009F005EF09F008EF09F060EC09F0579CD0
:10121000120057B60EEF09F010EF09F019EF09F0C0
:1012200057A815EF09F017EF09F019EF09F074EC62
:1012300009F0579812005906D8A05A0659505A106A
:10124000D8A425EF09F027EF09F02BEF09F0578616
:10125000000E5A6E5968120057A631EF09F033EFAD
:1012600009F03BEF09F057B838EF09F03AEF09F011
:101270003BEF09F057881200AC940F0EAF6EAC989C
:10128000AB8E9D8AAB889E9AAC8A000EAE6E120021
:10129000C7A04DEF09F04FEF09F048EF09F0120039
:1012A0007CEC09F0586E5782578C1200000E956E38
:1012B000000E836E120056C055F092EC09F0120039
:1012C00058C055F092EC09F01200585078EC09F033
:1012D000578A1200060095EC09F05B9211005784C2
:1012E0009AEC09F0566E1200880E78EC09F01200A4
:1012F000016E01C0C9FF120048EC09F0C95012008C
:10130000948E949C12009E969D861200F28EF28C12
:101310001200F18CF2881200578A578E12005798EB
:101320005786120055C083FF120083EC08F01200AC
:0C13300093801200AE501200FF0012006B
:020000040020DA
:08000000FFFFFFFFFFFFFFFF00
:020000040030CA
:0E000000FF01191EF38381FFFFC0FFE0FF40E8
:00000001FF
