:020000040000FA
:0400000007EF00F016
:0A000800568208ED09F0D8EF08F069
:1010000000737373646464640000000000000000F7
:1010100000000000000000000000000000000000D0
:1010200000000000000000000000000000000000C0
:1010300000000000000000000000000000000000B0
:1010400000000000000000000000000000000000A0
:1010500000009DA62EEF08F030EF08F03AEF08F000
:101060009EA635EF08F037EF08F03AEF08F012ECE3
:1010700009F09E969DAA3FEF08F041EF08F052EF6D
:1010800008F09EAA46EF08F048EF08F052EF08F08B
:1010900054B24DEF08F04FEF08F052EF08F00DECAE
:1010A00009F09E9AF1AC57EF08F059EF08F063EFA2
:1010B00008F0F2A25EEF08F060EF08F063EF08F0CE
:1010C00033EC09F0F29212002FEC09F020EC09F059
:1010D0001DEC09F0E5EC08F0F9EC08F01AEC09F069
:1010E00023EC09F0010EF66E20EE02F04F0E09001F
:1010F000F5CFDEFFE806FBE254A881EF08F083EFAE
:1011000008F086EF08F0C1EC08F0549854A28BEF79
:1011100008F08DEF08F090EF08F026EC09F05492FB
:1011200054A695EF08F097EF08F07CEF08F09EECDE
:1011300008F054967CEF08F007EF00F054B6A3EFE8
:1011400008F0A6EF08F0010EA7EF08F0000E016E00
:1011500054B4ADEF08F0B0EF08F0010EB1EF08F0B5
:10116000000E011AD8B4B7EF08F0B9EF08F0C0EFDD
:1011700008F054A602D0548401D05494610EAD6E90
:10118000120054ACC6EF08F0C8EF08F0CDEF08F03D
:10119000FEEC08F0549CD7EF08F054AAD2EF08F008
:1011A000D4EF08F0D7EF08F003EC09F0549A1200DE
:1011B000556A546A536A526A56905692000EF86EF7
:1011C000100EF76E000164EF08F0AC940F0EAF6ED6
:1011D000AC98AB8E9D8AAB889E9AAC8A000EAE6EA0
:1011E0001200C7A0F6EF08F0F8EF08F0F1EF08F0F2
:1011F0001200000E956E000E836E120053C052F066
:1012000029EC09F0120055C052F029EC09F0120047
:1012100006002CEC09F056921100548231EC09F0D2
:10122000536E120016EC09F0556E1200F1EC08F046
:10123000C9501200F18CF2881200948E949C120016
:101240009E969D861200F28EF28C12005488548C69
:10125000120052C083FF120029EC08F012009380A4
:0A1260001200AE5012005486120076
:020000040020DA
:08000000FFFFFFFFFFFFFFFF00
:020000040030CA
:0E000000FF01191EF38381FFFFC0FFE0FF40E8
:00000001FF
