:020000040000FA
:0400000007EF00F016
:0A00080056820AED09F0DAEF08F065
:1010000000737373646464640000000000000000F7
:1010100000000000000000000000000000000000D0
:1010200000000000000000000000000000000000C0
:1010300000000000000000000000000000000000B0
:1010400000000000000000000000000000000000A0
:10105000000037EC09F01FEC09F01CEC09F0E7EC9C
:1010600008F0FBEC08F025EC09F031EC09F022EC7B
:1010700009F0010EF66E20EE02F04F0E0900F5CFDA
:10108000DEFFE806FBE254A848EF08F04AEF08F05C
:101090004DEF08F0C3EC08F0549854A252EF08F05A
:1010A00054EF08F057EF08F028EC09F0549254A6DA
:1010B0005CEF08F05EEF08F043EF08F0A0EC08F0FA
:1010C000549643EF08F007EF00F09DA66AEF08F092
:1010D0006CEF08F076EF08F09EA671EF08F073EF62
:1010E00008F076EF08F014EC09F09E969DAA7BEFCD
:1010F00008F07DEF08F08EEF08F09EAA82EF08F06E
:1011000084EF08F08EEF08F054B289EF08F08BEF0F
:1011100008F08EEF08F00FEC09F09E9AF1AC93EF17
:1011200008F095EF08F09FEF08F0F2A29AEF08F0B0
:101130009CEF08F09FEF08F035EC09F0F2921200F6
:1011400054B6A5EF08F0A8EF08F0010EA9EF08F0DB
:10115000000E016E54B4AFEF08F0B2EF08F0010ECC
:10116000B3EF08F0000E011AD8B4B9EF08F0BBEFE6
:1011700008F0C2EF08F054A602D0548401D0549471
:10118000610EAD6E120054ACC8EF08F0CAEF08F063
:10119000CFEF08F000EC09F0549CD9EF08F054AA06
:1011A000D4EF08F0D6EF08F0D9EF08F005EC09F01D
:1011B000549A1200556A546A536A526A569056926B
:1011C000000EF86E100EF76E000129EF08F0AC94D7
:1011D0000F0EAF6EAC98AB8E9D8AAB889E9AAC8A90
:1011E000000EAE6E1200C7A0F8EF08F0FAEF08F09C
:1011F000F3EF08F01200000E956E000E836E1200E1
:1012000053C052F02BEC09F0120055C052F02BECF9
:1012100009F0120006002EEC09F0569211005482DB
:1012200033EC09F0536E120018EC09F0556E120001
:10123000F3EC08F0C9501200948E949C12009E9614
:101240009D861200F28EF28C1200F18CF288120050
:101250005488548C120052C083FF120065EC08F0D1
:10126000120093801200AE50120054861200120039
:020000040020DA
:08000000FFFFFFFFFFFFFFFF00
:020000040030CA
:0E000000FF01191EF38381FFFFC0FFE0FF40E8
:00000001FF
