:020000040000FA
:0400000007EF00F016
:0A00080056820CED09F0D4EF08F069
:1010000000737373646464640000000000000000F7
:1010100000000000000000000000000000000000D0
:1010200000000000000000000000000000000000C0
:1010300000000000000000000000000000000000B0
:1010400000000000000000000000000000000000A0
:1010500000009DA62EEF08F030EF08F03AEF08F000
:101060009EA635EF08F037EF08F03AEF08F01EECD7
:1010700009F09E969DAA3FEF08F041EF08F052EF6D
:1010800008F09EAA46EF08F048EF08F052EF08F08B
:1010900054B24DEF08F04FEF08F052EF08F011ECAA
:1010A00009F09E9AF1AC57EF08F059EF08F063EFA2
:1010B00008F0F2A25EEF08F060EF08F063EF08F0CE
:1010C00037EC09F0F2921200EDEC08F029EC09F08F
:1010D000E1EC08F026EC09F02CEC09F0010EF66EBC
:1010E00020EE02F04F0E0900F5CFDEFFE806FBE22E
:1010F00054A87DEF08F07FEF08F082EF08F0BDEC18
:1011000008F0549854A287EF08F089EF08F08CEFAC
:1011100008F0FDEC08F0549254A691EF08F093EF1C
:1011200008F078EF08F09AEC08F0549678EF08F0A1
:1011300007EF00F054B69FEF08F0A2EF08F0010EA1
:10114000A3EF08F0000E016E54B4A9EF08F0ACEF65
:1011500008F0010EADEF08F0000E011AD8B4B3EF9D
:1011600008F0B5EF08F0BCEF08F054A602D05484A4
:1011700001D05494610EAD6E120054ACC2EF08F071
:10118000C4EF08F0C9EF08F002EC09F0549CD3EF6B
:1011900008F054AACEEF08F0D0EF08F0D3EF08F033
:1011A00007EC09F0549A1200556A546A536A526A5D
:1011B00056905692000EF86E100EF76E000164EF16
:1011C00008F0AC941F0EAF6EAC98AB8E9D8AAB88C6
:1011D0009E9AAC8A000EAE6E1200000E956E000E46
:1011E000836E948E949C93801200C7A0FAEF08F04F
:1011F000FCEF08F0F5EF08F012005488548C16EC60
:1012000009F0120053C052F02FEC09F0120055C043
:1012100052F02FEC09F01200060032EC09F0569261
:101220001100548235EC09F0536E120053501AEC41
:1012300009F01200016E01C0ADFF120022EC09F0AE
:10124000556E1200F5EC08F0C9501200F18CF288CE
:1012500012009E969D861200F28EF28C120052C0F1
:1012600083FF120029EC08F01200AE5012005486E1
:0212700012006A
:020000040020DA
:08000000FFFFFFFFFFFFFFFF00
:020000040030CA
:0E000000FF01191EF38381FFFFC0FFE0FF40E8
:00000001FF
