:020000040000FA
:0400000007EF00F016
:0A00080056820EED09F0E2EF08F059
:1010000000737373646464640000000000000000F7
:1010100000000000000000000000000000000000D0
:1010200000000000000000000000000000000000C0
:1010300000000000000000000000000000000000B0
:1010400000000000000000000000000000000000A0
:1010500000009DA62EEF08F030EF08F03AEF08F000
:101060009EA635EF08F037EF08F03AEF08F017ECDE
:1010700009F09E969DAA3FEF08F041EF08F052EF6D
:1010800008F09EAA46EF08F048EF08F052EF08F08B
:1010900054B24DEF08F04FEF08F052EF08F013ECA8
:1010A00009F09E9AF1AC57EF08F059EF08F063EFA2
:1010B00008F0F2A25EEF08F060EF08F063EF08F0CE
:1010C00031EC09F0F2921200EFEC08F022EC09F09A
:1010D000D4EC08F01FEC09F025EC09F0010EF66ED7
:1010E00020EE02F04F0E0900F5CFDEFFE806FBE22E
:1010F00054A87DEF08F07FEF08F082EF08F0BDEC18
:1011000008F0549854A287EF08F089EF08F08CEFAC
:1011100008F0FFEC08F0549254A691EF08F093EF1A
:1011200008F078EF08F09AEC08F0549678EF08F0A1
:1011300007EF00F054B69FEF08F0A2EF08F0010EA1
:10114000A3EF08F0000E016E54B4A9EF08F0ACEF65
:1011500008F0010EADEF08F0000E011AD8B4B3EF9D
:1011600008F0B5EF08F0BCEF08F054A602D05484A4
:1011700001D05494610EAD6E120054ACC2EF08F071
:10118000C4EF08F0C9EF08F004EC09F0549CD3EF69
:1011900008F054AACEEF08F0D0EF08F0D3EF08F033
:1011A00009EC09F0549A1200AC8AAC94AB8EAB886F
:1011B0007E92400EAF6E9E9A9D8A000EAE6E000E1D
:1011C000AD6E1200556A546A536A526A569056922E
:1011D000000EF86E100EF76E000164EF08F0000EBE
:1011E000956E000E836E948E949C93801200C7A01F
:1011F000FCEF08F0FEEF08F0F7EF08F0120054885B
:10120000548C28EC09F0120053C052F02BEC09F07A
:10121000120055C052F02BEC09F0120006002EEC23
:1012200009F0569211005482AECF53F012001BEC1D
:1012300009F0556E1200F7EC08F0C9501200F18C5D
:10124000F28812009E969D861200F28EF28C120099
:1012500053C0ADFF120052C083FF120029EC08F00A
:061260001200548612008A
:020000040020DA
:08000000FFFFFFFFFFFFFFFF00
:020000040030CA
:0E000000FF01191EF38381FFFFC0FFE0FF40E8
:00000001FF
