:020000040000FA
:0400000007EF00F016
:0A0008005B826BED09F0DAEF08F0FF
:1010000000737373646464640000000000000000F7
:1010100000000000000000000000000000000000D0
:1010200000000000000000000000000000000000C0
:1010300000000000000000000000000000000000B0
:1010400000000000000000000000000000000000A0
:1010500000009EEC09F084EC09F081EC09F03DEC15
:1010600009F057EC09F090EC09F08AEC09F099ECE2
:1010700009F087EC09F0000E016E000E026E000E02
:10108000036E250EBEEC08F0010EF66E20EE05F0A4
:101090004F0E0900F5CFDEFFE806FBE257A253EF43
:1010A00008F055EF08F058EF08F066EC09F0579299
:1010B00057AA5DEF08F05FEF08F062EF08F0F3EC7D
:1010C00008F0579A57A467EF08F069EF08F06CEF43
:1010D00008F08DEC09F0579457A871EF08F073EF02
:1010E00008F076EF08F057960AEC09F057B67BEF58
:1010F00008F07DEF08F04EEF08F01CEC09F04EEF21
:1011000008F007EF00F09DA688EF08F08AEF08F0DE
:1011100094EF08F09EA68FEF08F091EF08F094EF9F
:1011200008F051EC09F09E969DAA99EF08F09BEF0C
:1011300008F0ACEF08F09EAAA0EF08F0A2EF08F0CC
:10114000ACEF08F057B4A7EF08F0A9EF08F0ACEF48
:1011500008F070EC09F09E9AF1ACB1EF08F0B3EF33
:1011600008F0BDEF08F0F2A2B8EF08F0BAEF08F00F
:10117000BDEF08F02DEC09F0F2921200046E949A83
:10118000948804A4C6EF08F0C8EF08F0CFEF08F089
:1011900003C0C7FF948694848B80D4EF08F001507D
:1011A0000310C76E9496949404500210C66EC79CA8
:1011B000C69812003A0EF66E130EF76E000EF86E19
:1011C0000900F5CF59F00900F5CF5AF0586A576A6F
:1011D000566A556A5B905B92000EF86E100EF76EC1
:1011E000000129EF08F057AEF8EF08F0FAEF08F029
:1011F000FFEF08F05CEC09F0579E09EF09F057ACDF
:1012000004EF09F006EF09F009EF09F061EC09F0CD
:10121000579C120057B60FEF09F011EF09F01AEFC3
:1012200009F057A816EF09F018EF09F01AEF09F0C6
:1012300075EC09F0579812005906D8A05A06595073
:101240005A10D8A426EF09F028EF09F02CEF09F086
:101250005786000E5A6E5968120057A632EF09F0F1
:1012600034EF09F03CEF09F057B839EF09F03BEFE4
:1012700009F03CEF09F057881200AC940F0EAF6EE6
:10128000AC98AB8E9D8AAB889E9AAC8A000EAE6EEF
:101290001200C7A04EEF09F050EF09F049EF09F036
:1012A00012007DEC09F0586E5782578C1200000E28
:1012B000956E000E836E120056C055F093EC09F047
:1012C000120058C055F093EC09F01200870E79EC2B
:1012D00009F0578A1200060096EC09F05B921100A3
:1012E00057849BEC09F0566E1200880E79EC09F0D9
:1012F0001200016E01C0C9FF120049EC09F0C9508B
:101300001200948E949C12009E969D861200F28E7E
:10131000F28C1200F18CF2881200578A578E12005C
:1013200057985786120055C083FF120083EC08F0CF
:0E133000120093801200AE501200FF00120057
:020000040020DA
:08000000FFFFFFFFFFFFFFFF00
:020000040030CA
:0E000000FF01191EF38381FFFFC0FFE0FF40E8
:00000001FF
