:020000040000FA
:0400000007EF00F016
:100008000682B1ED00F092EF00F09AEC00F0BEEC41
:1000180000F088EC00F0C1EC00F003A216EF00F04D
:1000280018EF00F01CEF00F003920F0EB6EC00F092
:1000380003A421EF00F023EF00F025EF00F0AAEC75
:1000480000F003A82AEF00F02CEF00F011EF00F009
:1000580003B831EF00F034EF00F0010E35EF00F097
:10006800000E056E03B63BEF00F03EEF00F0010E08
:100078003FEF00F0000E051AD8B445EF00F047EF47
:1000880000F04EEF00F003A802D0038601D00396DB
:10009800C4EC00F0039811EF00F007EF00F09DA604
:1000A80058EF00F05AEF00F065EF00F09EA65FEF02
:1000B80000F061EF00F065EF00F09E96BAEC00F0FA
:1000C800026E9DAA6AEF00F06CEF00F077EF00F087
:1000D8009EAA71EF00F073EF00F077EF00F09E9AA0
:1000E8000384AECF01F0F1AC7CEF00F07EEF00F0BE
:1000F80087EF00F0F2A283EF00F085EF00F087EFC2
:1001080000F0F29203881200AC8AAC94AB8EAB88F4
:100118007E92400EAF6E9E9A9D8A1200036A026A12
:10012800016A06900692000109EF00F0000E956E34
:10013800000E836E948E949C93801200C7A0A7EF44
:1001480000F0A9EF00F0A2EF00F01200AECF01F02E
:1001580001C083FF01C0ADFF12000600C7EC00F02C
:1001680006921100046E04C0C9FF1200A2EC00F050
:10017800C95012009E969D861200F28EF28C1200D3
:0C018800CC0EAD6E120053EC00F0120023
:020000040020DA
:08000000FFFFFFFFFFFFFFFF00
:020000040030CA
:0E000000FF01191EF38381FFFFC0FFE0FF40E8
:00000001FF
