:020000040000FA
:0400000007EF00F016
:0A000800568207ED09F0D4EF08F06E
:1010000000737373646464640000000000000000F7
:1010100000000000000000000000000000000000D0
:1010200000000000000000000000000000000000C0
:1010300000000000000000000000000000000000B0
:1010400000000000000000000000000000000000A0
:1010500000009DA62EEF08F030EF08F03AEF08F000
:101060009EA635EF08F037EF08F03AEF08F011ECE4
:1010700009F09E969DAA3FEF08F041EF08F052EF6D
:1010800008F09EAA46EF08F048EF08F052EF08F08B
:1010900054B24DEF08F04FEF08F052EF08F00CECAF
:1010A00009F09E9AF1AC57EF08F059EF08F063EFA2
:1010B00008F0F2A25EEF08F060EF08F063EF08F0CE
:1010C0002DEC09F0F2921200EDEC08F01CEC09F0A6
:1010D000E1EC08F019EC09F01FEC09F0010EF66ED6
:1010E00020EE02F04F0E0900F5CFDEFFE806FBE22E
:1010F00054A87DEF08F07FEF08F082EF08F0BDEC18
:1011000008F0549854A287EF08F089EF08F08CEFAC
:1011100008F022EC09F0549254A691EF08F093EFF6
:1011200008F078EF08F09AEC08F0549678EF08F0A1
:1011300007EF00F054B69FEF08F0A2EF08F0010EA1
:10114000A3EF08F0000E016E54B4A9EF08F0ACEF65
:1011500008F0010EADEF08F0000E011AD8B4B3EF9D
:1011600008F0B5EF08F0BCEF08F054A602D05484A4
:1011700001D05494610EAD6E120054ACC2EF08F071
:10118000C4EF08F0C9EF08F0FDEC08F0549CD3EF71
:1011900008F054AACEEF08F0D0EF08F0D3EF08F033
:1011A00002EC09F0549A1200556A546A536A526A62
:1011B00056905692000EF86E100EF76E000164EF16
:1011C00008F0AC940F0EAF6EAC98AB8E9D8AAB88D6
:1011D0009E9AAC8A000EAE6E1200000E956E000E46
:1011E000836E948E949C93801200C7A0FAEF08F04F
:1011F000FCEF08F0F5EF08F0120053C052F025ECB8
:1012000009F0120055C052F025EC09F0120006005A
:1012100028EC09F05692110054822BEC09F0536E21
:10122000120015EC09F0556E1200F5EC08F0C950EB
:101230001200F18CF28812009E969D861200F28EAA
:10124000F28C12005488548C120052C083FF12009A
:0E12500029EC08F01200AE5012005486120075
:020000040020DA
:08000000FFFFFFFFFFFFFFFF00
:020000040030CA
:0E000000FF01191EF38381FFFFC0FFE0FF40E8
:00000001FF
