:020000040000FA
:0400000007EF00F016
:10000800098273ED00F061EF00F068EC00F06EEC2F
:1000180000F0000E016E000E026E000E036E240E3C
:1000280032EC00F0550E78EC00F008A21EEF00F05C
:1000380020EF00F023EF00F007C083FF08920B0EBB
:10004800066E260E056E5E0EE82EFED7052EFCD730
:10005800062EFAD719EF00F007EF00F0046E949A15
:10006800948804A43AEF00F03CEF00F043EF00F06E
:1000780003C0C7FF94869490828048EF00F0015037
:100088000310C76E9496948004500210C66E120036
:100098009EA651EF00F053EF00F058EF00F09E9647
:1000A8007CEC00F0076E08821200C7A05EEF00F03B
:1000B80060EF00F059EF00F01200086A076A099033
:1000C8000992000109EF00F0F19E000E956E000EF6
:1000D800836E1200F28EF28C9E969D8612000600A8
:1000E80080EC00F009921100016E01C0C9FF1200F6
:0E00F80059EC00F0C95012004CEC00F0120060
:020000040020DA
:08000000FFFFFFFFFFFFFFFF00
:020000040030CA
:0E000000FF01191EF38381FFFFC0FFE0FF40E8
:00000001FF
