:020000040000FA
:0400000007EF00F016
:0A0008005682DFED08F0B8EF08F0B3
:1010000000737373646464640000000000000000F7
:1010100000000000000000000000000000000000D0
:1010200000000000000000000000000000000000C0
:1010300000000000000000000000000000000000B0
:1010400000000000000000000000000000000000A0
:101050000000CFEC08F0F3EC08F0C5EC08F0F0EC81
:1010600008F0F6EC08F0010EF66E20EE02F04F0EDE
:101070000900F5CFDEFFE806FBE254A842EF08F0D6
:1010800044EF08F045EF08F0549854A24AEF08F0F6
:101090004CEF08F050EF08F0FFEC08F05488549241
:1010A00054A655EF08F057EF08F03DEF08F054B69E
:1010B0005CEF08F05FEF08F0010E60EF08F0000E43
:1010C000016E54B466EF08F069EF08F0010E6AEFA4
:1010D00008F0000E011AD8B470EF08F072EF08F0B3
:1010E00079EF08F054A602D0548401D05494F9EC5E
:1010F00008F054963DEF08F007EF00F09DA683EF4F
:1011000008F085EF08F08FEF08F09EA68AEF08F050
:101110008CEF08F08FEF08F0E8EC08F09E969DAA9F
:1011200094EF08F096EF08F0A7EF08F09EAA9BEF67
:1011300008F09DEF08F0A7EF08F054B2A2EF08F016
:10114000A4EF08F0A7EF08F0E4EC08F09E9AF1ACE9
:10115000ACEF08F0AEEF08F0B7EF08F0F2A2B3EF93
:1011600008F0B5EF08F0B7EF08F0F29254861200DD
:10117000556A546A536A526A56905692000EF86E37
:10118000100EF76E000129EF08F0AC8AAC94AB8E1C
:10119000AB887E92400EAF6E9E9A9D8A1200000E22
:1011A000956E000E836E948E949C93801200C7A05F
:1011B000DCEF08F0DEEF08F0D7EF08F012000600D1
:1011C000FCEC08F0569211005482AECF53F012009E
:1011D000ECEC08F0556E1200D7EC08F0C950120084
:1011E000F18CF28812009E969D861200F28EF28C8F
:1011F0001200CC0EAD6E12007EEC08F01200120050
:020000040020DA
:08000000FFFFFFFFFFFFFFFF00
:020000040030CA
:0E000000FF01191EF38381FFFFC0FFE0FF40E8
:00000001FF
