:020000040000FA
:0400000007EF00F016
:10000800058275ED00F05EEF00F06EEC00F082EC1A
:1000180000F054EC00F085EC00F0CC0EAD6E03A2BD
:1000280018EF00F01AEF00F01EEF00F003920F0E29
:100038007AEC00F003A423EF00F025EF00F013EFB3
:1000480000F0AECF01F001C083FF01C0ADFF13EF98
:1000580000F007EF00F09DA634EF00F036EF00F057
:1000680041EF00F09EA63BEF00F03DEF00F041EFBE
:1000780000F09E967EEC00F0026E9DAA46EF00F01E
:1000880048EF00F053EF00F09EAA4DEF00F04FEF5D
:1000980000F053EF00F09E9A0384AECF01F01200F7
:1000A800AC8AAC94AB8EAB887E92400EAF6E9E9AB3
:1000B8009D8A1200036A026A016A0590059200018E
:1000C80009EF00F0C7A06BEF00F06DEF00F066EFEE
:1000D80000F01200000E956E000E836E948E949CB4
:1000E8001200060088EC00F005921100046E04C0AE
:1000F800C9FF120066EC00F0C95012009E969D865A
:0E0108001200F28EF28C12002FEC00F01200AA
:020000040020DA
:08000000FFFFFFFFFFFFFFFF00
:020000040030CA
:0E000000FF01191EF38381FFFFC0FFE0FF40E8
:00000001FF
