:020000040000FA
:0400000007EF00F016
:0A000800578231ED09F0ABEF08F06C
:1010000000737373646464640000000000000000F7
:1010100000000000000000000000000000000000D0
:1010200000000000000000000000000000000000C0
:1010300000000000000000000000000000000000B0
:1010400000000000000000000000000000000000A0
:10105000000060EC09F046EC09F043EC09F00EECFE
:1010600009F022EC09F052EC09F04CEC09F05BECD1
:1010700009F049EC09F0010EF66E20EE01F04F0E7A
:101080000900F5CFDEFFE806FBE253A84AEF08F0BF
:101090004CEF08F04FEF08F0C4EC08F0539853A25F
:1010A00054EF08F056EF08F059EF08F04FEC09F054
:1010B000539253A65EEF08F060EF08F063EF08F07C
:1010C0005394DBEC08F053B468EF08F06AEF08F0D3
:1010D00045EF08F0EDEC08F045EF08F007EF00F001
:1010E0009DA675EF08F077EF08F081EF08F09EA657
:1010F0007CEF08F07EEF08F081EF08F03BEC09F0A0
:101100009E969DAA86EF08F088EF08F099EF08F008
:101110009EAA8DEF08F08FEF08F099EF08F053B218
:1011200094EF08F096EF08F099EF08F036EC09F02C
:101130009E9AF1AC9EEF08F0A0EF08F0AAEF08F03D
:10114000F2A2A5EF08F0A7EF08F0AAEF08F0FEEC76
:1011500008F0F2921200BE0EF66E120EF76E000E3E
:10116000F86E0900F5CF55F00900F5CF56F0546A36
:10117000536A526A516A57905792000EF86E100ED9
:10118000F76E000129EF08F053ACC9EF08F0CBEF80
:1011900008F0D0EF08F027EC09F0539CDAEF08F0E4
:1011A00053AAD5EF08F0D7EF08F0DAEF08F02CECEF
:1011B00009F0539A120053B4E0EF08F0E2EF08F0A0
:1011C000EBEF08F053A6E7EF08F0E9EF08F0EBEFDC
:1011D00008F0610EAD6E539612005506D8A0560663
:1011E00055505610D8A4F7EF08F0F9EF08F0FDEFCE
:1011F00008F05384000E566E5568120053A403EF96
:1012000009F005EF09F00DEF09F053B60AEF09F008
:101210000CEF09F00DEF09F053861200AC940F0E9D
:10122000AF6EAC98AB8E9D8AAB889E9AAC8A000E4E
:10123000AE6E1200C7A01FEF09F021EF09F01AEF00
:1012400009F01200000E956E000E836E120052C05F
:1012500051F055EC09F0120054C051F055EC09F072
:101260001200060058EC09F05792110053825DEC11
:1012700009F0526E12003FEC09F0546E12001AECA5
:1012800009F0C9501200948E949C12009E969D867F
:101290001200F28EF28C1200F18CF2881200538848
:1012A000538C120053965384120051C083FF1200D6
:1012B00070EC08F0120093801200AE501200FF0094
:0212C00012001A
:020000040020DA
:08000000FFFFFFFFFFFFFFFF00
:020000040030CA
:0E000000FF01191EF38381FFFFC0FFE0FF40E8
:00000001FF
